{
  "_format": "hh-sol-artifact-1",
  "contractName": "Timelock",
  "sourceName": "contracts/TimelockWallet.sol",
  "abi": [
    {
      "inputs": [
        {
          "internalType": "address",
          "name": "token_",
          "type": "address"
        }
      ],
      "stateMutability": "nonpayable",
      "type": "constructor"
    },
    {
      "anonymous": false,
      "inputs": [
        {
          "indexed": false,
          "internalType": "address",
          "name": "Address",
          "type": "address"
        },
        {
          "indexed": false,
          "internalType": "address",
          "name": "Address_",
          "type": "address"
        },
        {
          "indexed": false,
          "internalType": "uint256",
          "name": "amount",
          "type": "uint256"
        }
      ],
      "name": "logDepo",
      "type": "event"
    },
    {
      "anonymous": false,
      "inputs": [
        {
          "indexed": false,
          "internalType": "address",
          "name": "Addr",
          "type": "address"
        },
        {
          "indexed": false,
          "internalType": "uint256",
          "name": "amount",
          "type": "uint256"
        }
      ],
      "name": "logWithdraw",
      "type": "event"
    },
    {
      "inputs": [],
      "name": "amountCal",
      "outputs": [
        {
          "internalType": "uint256",
          "name": "",
          "type": "uint256"
        }
      ],
      "stateMutability": "view",
      "type": "function"
    },
    {
      "inputs": [
        {
          "internalType": "address",
          "name": "Address_",
          "type": "address"
        }
      ],
      "name": "balancecheck",
      "outputs": [
        {
          "internalType": "uint256",
          "name": "",
          "type": "uint256"
        }
      ],
      "stateMutability": "view",
      "type": "function"
    },
    {
      "inputs": [],
      "name": "countMonths",
      "outputs": [
        {
          "internalType": "uint256",
          "name": "",
          "type": "uint256"
        }
      ],
      "stateMutability": "view",
      "type": "function"
    },
    {
      "inputs": [
        {
          "internalType": "uint256",
          "name": "amount_",
          "type": "uint256"
        }
      ],
      "name": "deposit",
      "outputs": [],
      "stateMutability": "nonpayable",
      "type": "function"
    },
    {
      "inputs": [],
      "name": "owner",
      "outputs": [
        {
          "internalType": "address payable",
          "name": "",
          "type": "address"
        }
      ],
      "stateMutability": "view",
      "type": "function"
    },
    {
      "inputs": [],
      "name": "withdraws",
      "outputs": [],
      "stateMutability": "nonpayable",
      "type": "function"
    },
    {
      "stateMutability": "payable",
      "type": "receive"
    }
  ],
  "bytecode": "0x60a0604052600060015534801561001557600080fd5b50604051611124380380611124833981810160405281019061003791906100ca565b3373ffffffffffffffffffffffffffffffffffffffff1660808173ffffffffffffffffffffffffffffffffffffffff1660601b8152505080600260006101000a81548173ffffffffffffffffffffffffffffffffffffffff021916908373ffffffffffffffffffffffffffffffffffffffff1602179055505061013c565b6000815190506100c481610125565b92915050565b6000602082840312156100dc57600080fd5b60006100ea848285016100b5565b91505092915050565b60006100fe82610105565b9050919050565b600073ffffffffffffffffffffffffffffffffffffffff82169050919050565b61012e816100f3565b811461013957600080fd5b50565b60805160601c610fbc6101686000396000818161025e0152818161066e01526107970152610fbc6000f3fe6080604052600436106100595760003560e01c806310e7a9ce1461006557806333c17e641461009057806375d3697a146100bb5780638da5cb5b146100f8578063b6b55f2514610123578063d95102151461014c57610060565b3661006057005b600080fd5b34801561007157600080fd5b5061007a610163565b6040516100879190610c22565b60405180910390f35b34801561009c57600080fd5b506100a5610169565b6040516100b29190610c22565b60405180910390f35b3480156100c757600080fd5b506100e260048036038101906100dd9190610978565b610213565b6040516100ef9190610c22565b60405180910390f35b34801561010457600080fd5b5061010d61025c565b60405161011a9190610ade565b60405180910390f35b34801561012f57600080fd5b5061014a600480360381019061014591906109ca565b610280565b005b34801561015857600080fd5b5061016161053b565b005b60015481565b60006101b3600560003373ffffffffffffffffffffffffffffffffffffffff1673ffffffffffffffffffffffffffffffffffffffff16815260200190815260200160002054610877565b6000600c600560003373ffffffffffffffffffffffffffffffffffffffff1673ffffffffffffffffffffffffffffffffffffffff168152602001908152602001600020546102019190610ca4565b905061020c81610877565b8091505090565b6000600460003373ffffffffffffffffffffffffffffffffffffffff1673ffffffffffffffffffffffffffffffffffffffff168152602001908152602001600020549050919050565b7f000000000000000000000000000000000000000000000000000000000000000081565b60001515600660003373ffffffffffffffffffffffffffffffffffffffff1673ffffffffffffffffffffffffffffffffffffffff16815260200190815260200160002060009054906101000a900460ff16151514610313576040517f08c379a000000000000000000000000000000000000000000000000000000000815260040161030a90610c02565b60405180910390fd5b670de0b6b3a7640000816103279190610cd5565b600381905550610338600354610877565b42600081905550600260009054906101000a900473ffffffffffffffffffffffffffffffffffffffff1673ffffffffffffffffffffffffffffffffffffffff166323b872dd33306003546040518463ffffffff1660e01b81526004016103a093929190610b22565b602060405180830381600087803b1580156103ba57600080fd5b505af11580156103ce573d6000803e3d6000fd5b505050506040513d601f19601f820116820180604052508101906103f291906109a1565b50600354600460003373ffffffffffffffffffffffffffffffffffffffff1673ffffffffffffffffffffffffffffffffffffffff16815260200190815260200160002060008282546104449190610c4e565b92505081905550600354600560003373ffffffffffffffffffffffffffffffffffffffff1673ffffffffffffffffffffffffffffffffffffffff168152602001908152602001600020600082825461049c9190610c4e565b925050819055506001600660003373ffffffffffffffffffffffffffffffffffffffff1673ffffffffffffffffffffffffffffffffffffffff16815260200190815260200160002060006101000a81548160ff0219169083151502179055507fd46f39fa4165ee2b17a93348f5154de585799be5cf1e318144e289057f1d9112333060035460405161053093929190610b22565b60405180910390a150565b6000600460003373ffffffffffffffffffffffffffffffffffffffff1673ffffffffffffffffffffffffffffffffffffffff16815260200190815260200160002054116105bd576040517f08c379a00000000000000000000000000000000000000000000000000000000081526004016105b490610b82565b60405180910390fd5b600c6001541115610603576040517f08c379a00000000000000000000000000000000000000000000000000000000081526004016105fa90610ba2565b60405180910390fd5b6001600081548092919061061690610df3565b9190505550600160005461062a9190610c4e565b42101561066c576040517f08c379a000000000000000000000000000000000000000000000000000000000815260040161066390610bc2565b60405180910390fd5b7f000000000000000000000000000000000000000000000000000000000000000073ffffffffffffffffffffffffffffffffffffffff163373ffffffffffffffffffffffffffffffffffffffff16146106fa576040517f08c379a00000000000000000000000000000000000000000000000000000000081526004016106f190610be2565b60405180910390fd5b610702610169565b600460003373ffffffffffffffffffffffffffffffffffffffff1673ffffffffffffffffffffffffffffffffffffffff16815260200190815260200160002060008282546107509190610d2f565b92505081905550600260009054906101000a900473ffffffffffffffffffffffffffffffffffffffff1673ffffffffffffffffffffffffffffffffffffffff1663a9059cbb7f00000000000000000000000000000000000000000000000000000000000000006107be610169565b6040518363ffffffff1660e01b81526004016107db929190610af9565b602060405180830381600087803b1580156107f557600080fd5b505af1158015610809573d6000803e3d6000fd5b505050506040513d601f19601f8201168201806040525081019061082d91906109a1565b50426000819055507f92f465beff468d0ef38bda350d800e7fad71e00c97651730cd166bfe10893a8f3361085f610169565b60405161086d929190610b59565b60405180910390a1565b61090d8160405160240161088b9190610c22565b6040516020818303038152906040527ff5b1bba9000000000000000000000000000000000000000000000000000000007bffffffffffffffffffffffffffffffffffffffffffffffffffffffff19166020820180517bffffffffffffffffffffffffffffffffffffffffffffffffffffffff8381831617835250505050610910565b50565b60008151905060006a636f6e736f6c652e6c6f679050602083016000808483855afa5050505050565b60008135905061094881610f41565b92915050565b60008151905061095d81610f58565b92915050565b60008135905061097281610f6f565b92915050565b60006020828403121561098a57600080fd5b600061099884828501610939565b91505092915050565b6000602082840312156109b357600080fd5b60006109c18482850161094e565b91505092915050565b6000602082840312156109dc57600080fd5b60006109ea84828501610963565b91505092915050565b6109fc81610dbd565b82525050565b610a0b81610d75565b82525050565b610a1a81610d63565b82525050565b6000610a2d601483610c3d565b9150610a3882610e9a565b602082019050919050565b6000610a50601583610c3d565b9150610a5b82610ec3565b602082019050919050565b6000610a73601583610c3d565b9150610a7e82610eec565b602082019050919050565b6000610a96600a83610c3d565b9150610aa182610f15565b602082019050919050565b6000610ab9600083610c3d565b9150610ac482610f3e565b600082019050919050565b610ad881610db3565b82525050565b6000602082019050610af36000830184610a02565b92915050565b6000604082019050610b0e60008301856109f3565b610b1b6020830184610acf565b9392505050565b6000606082019050610b376000830186610a11565b610b446020830185610a11565b610b516040830184610acf565b949350505050565b6000604082019050610b6e6000830185610a11565b610b7b6020830184610acf565b9392505050565b60006020820190508181036000830152610b9b81610a20565b9050919050565b60006020820190508181036000830152610bbb81610a43565b9050919050565b60006020820190508181036000830152610bdb81610a66565b9050919050565b60006020820190508181036000830152610bfb81610a89565b9050919050565b60006020820190508181036000830152610c1b81610aac565b9050919050565b6000602082019050610c376000830184610acf565b92915050565b600082825260208201905092915050565b6000610c5982610db3565b9150610c6483610db3565b9250827fffffffffffffffffffffffffffffffffffffffffffffffffffffffffffffffff03821115610c9957610c98610e3c565b5b828201905092915050565b6000610caf82610db3565b9150610cba83610db3565b925082610cca57610cc9610e6b565b5b828204905092915050565b6000610ce082610db3565b9150610ceb83610db3565b9250817fffffffffffffffffffffffffffffffffffffffffffffffffffffffffffffffff0483118215151615610d2457610d23610e3c565b5b828202905092915050565b6000610d3a82610db3565b9150610d4583610db3565b925082821015610d5857610d57610e3c565b5b828203905092915050565b6000610d6e82610d93565b9050919050565b6000610d8082610d93565b9050919050565b60008115159050919050565b600073ffffffffffffffffffffffffffffffffffffffff82169050919050565b6000819050919050565b6000610dc882610dcf565b9050919050565b6000610dda82610de1565b9050919050565b6000610dec82610d93565b9050919050565b6000610dfe82610db3565b91507fffffffffffffffffffffffffffffffffffffffffffffffffffffffffffffffff821415610e3157610e30610e3c565b5b600182019050919050565b7f4e487b7100000000000000000000000000000000000000000000000000000000600052601160045260246000fd5b7f4e487b7100000000000000000000000000000000000000000000000000000000600052601260045260246000fd5b7f496e73756666696369616e742062616c616e6365000000000000000000000000600082015250565b7f6d6178696d756d20636f756e7420726561636865640000000000000000000000600082015250565b7f6d75737420626520757020746f20333020646179730000000000000000000000600082015250565b7f6f6e6c79206f776e657200000000000000000000000000000000000000000000600082015250565b50565b610f4a81610d63565b8114610f5557600080fd5b50565b610f6181610d87565b8114610f6c57600080fd5b50565b610f7881610db3565b8114610f8357600080fd5b5056fea2646970667358221220c5bc392412343e0d6566235a3f638b04bef97df2b3d3fd83bd8bcf11ce6a1c0164736f6c63430008040033",
  "linkReferences": {},
  "deployedLinkReferences": {}
}